:020000040800F2
:1000000000200020DD010008E5010008E9010008EA
:1000100000000000000000000000000000000000E0
:100020000000000000000000000000001D020008A9
:100030000000000000000000210200082502000866
:100040002D0200082D0200082D0200082D020008D4
:100050002D020008ED20000859240008792400082A
:100060002D0200082D0200082D0200082D020008B4
:100070002D020008A92000082D0200082D0200080A
:100080002D0200082D020008000000002D020008CB
:100090002D0200082D0200082D0200082D02000884
:1000A000392100082D0200082D0200082D02000849
:1000B0002D020008000000002D02000800000000D2
:1000C0005FF808F130B583B001F018FB314B324ACC
:1000D0001360324A1360324B324A03E011681960F0
:1000E0000433043230498B42F8D32B4B1A682F4B20
:1000F0009A4204D1294B1A682D4B9A4200D0FEE750
:10010000244B2C4A13602C4A13602C4B02E0002233
:100110001A6004332A4A9342F9D3264B1B68002BFA
:1001200003D1254B1B68002B00D0FEE701F0EAFA53
:10013000694601A801F072FA224C234B1C1BA41043
:10014000002504E0AA001F4BD35898470135AC4264
:10015000F8DC1E4C1E4B1C1BA410002504E0AA005A
:100160001A4BD35898470135AC42F8DC00990198F6
:1001700001F064FF0500174C174B1C1BA41004E092
:10018000013CA200134BD3589847002CF8DC280000
:1001900001F016FABABADECA00000020980000206A
:1001A00000000020443400089C00002078563412DF
:1001B000325476989C000020980100209C0000207A
:1001C0009C0100205802000858020008580200084C
:1001D00058020008580200085802000810B5FFF73E
:1001E00071FFC04600BEFEE704207146084202D0FF
:1001F000EFF3098001E0EFF3088071460A4A1047E7
:1002000070B504000D00044801F01AFA290020001E
:1002100001F07CFA00BEFEE7E433000800BEFEE712
:1002200000BEFEE7704700000102000800BEFEE7C6
:1002300044340008000000209C00002044340008E2
:1002400000000000000000009C0000209C01002035
:080250000000000000000000A6
:1002580010B504000379002B05D0042B03D08521A9
:100268002C4801F0DFF96379082B07D00C2B05D057
:10027800102B03D08621274801F0D4F92368E22205
:10028800D205134201D1002B03D18721214801F067
:10029800C9F9A379012B03D988211E4801F0C2F9B5
:1002A800A379002B2CD01C4B1A6821688A431A604A
:1002B8005A6821688A435A6022799C4662441168C8
:1002C8002068014311609A6821688A439A60DA6855
:1002D80021688A43DA606379102B09D163469A68EA
:1002E80021680A439A60D96822680A43DA600FE0F5
:1002F800094A94466344196822680A431A6007E069
:100308002379054A944663441A6821688A431A6027
:1003180010BDC046283100080004014010B5040093
:10032800E223DB05184201D1002803D1FF2103484D
:1003380001F078F9024B5C6110BDC0462831000815
:100348000004014070B505000E009023DB059842BB
:1003580012D03C4B98420FD03B4B98420CD03B4BB1
:10036800984209D03A4B984206D03A4B984203D06B
:10037800AE21394801F056F93368002B03D1AF217B
:10038800354801F04FF93379032B03D9B0213248AE
:1003980001F048F9F379022B03D9B1212E4801F075
:1003A80041F900244AE00123A34032681A409342ED
:1003B80043D13379013BDBB2012B27D87379012B69
:1003C80005D9032B03D0C121234801F02BF9AB68D1
:1003D800610003228A409343AB60AA6873798B401B
:1003E8001343AB60B379012B03D9C8211A4801F034
:1003F80019F9AB882104090C01228A409343AB8088
:10040800A888B2798A4093B20343AB802B68610015
:1004180003221000884083432B60286833798B407F
:1004280003432B60EB682004C00B82409343EB60CE
:10043800EA68F3798B401343EB6001340F2CB2D98F
:1004480070BDC0460004004800080048000C004881
:1004580000100048001400485C31000870B5040022
:100468000D009023DB05984213D00E4B984210D014
:100478000D4B98420DD00D4B98420AD00C4B984228
:1004880007D00C4B984204D08621FF310A4801F06E
:10049800C9F8002D04D1C3214900074801F0C2F86A
:1004A800A56170BD0004004800080048000C004821
:1004B80000100048001400485C31000870B50400C2
:1004C8000D009023DB05984213D00E4B984210D0B4
:1004D8000D4B98420DD00D4B98420AD00C4B9842C8
:1004E80007D00C4B984204D0CD2149000A4801F0AE
:1004F80099F8002D04D19C21FF31074801F092F8AA
:10050800258570BD0004004800080048000C00481C
:1005180000100048001400485C31000870B5050060
:100528000C0016009023DB05984213D0184B984214
:1005380010D0184B98420DD0174B98420AD0174B41
:10054800984207D0164B984204D08121890015485B
:1005580001F068F80F2C03D91349124801F062F82A
:10056800072E03D911490F4801F05CF807232340EF
:100578009B009E40E4082100083189004A590F2059
:10058800984082434A514B591E434E5170BDC04654
:100598000004004800080048000C0048001000480B
:1005A800001400485C310008050200000602000043
:1005B80070B504000D003A4B984206D0394B98426A
:1005C80003D0B321384801F02DF86B68002B07D011
:1005D80080225201934203D0B421334801F022F81B
:1005E800AB680F2B03D9B5212F4801F01BF8EB6836
:1005F800002B0BD080229203934207D08022520313
:10060800934203D0B621284801F00CF8274B2A69F9
:100618009A4203D9B721244801F004F86B69002BEA
:1006280007D080221202934203D0B8211E4800F05E
:10063800F9FFAB69002B07D08022D200934203D088
:10064800B921194800F0EEFF236801218B4323608C
:100658002268174B1340AA681202686802431343C2
:100668002360144B2A6813402361236819432160CF
:100678000023A360E360AB692A691343A360A368FE
:10068800802212021343A3602368EA68134323609D
:100698006268094B13406A691343636070BDC046C2
:1006A800005400400058004090310008FF0300004B
:1006B800FFE0CF00FFFFFFF0FF7FFF0770B50400EA
:1006C8000D000F4B984207D00E4B984204D08D2155
:1006D80049000D4800F0A6FF012D04D91C21FF3167
:1006E800094800F09FFF002D04D02268012313431E
:1006F800236003E0236801229343236070BDC04652
:1007080000540040005800409031000870B50400C3
:100718000D001600134B984207D0134B984204D093
:10072800A8214900114800F07DFF012E04D952216B
:10073800FF310E4800F076FFFE232A009A4301D1CC
:10074800002D04D1A9214900084800F06BFF002EB4
:1007580003D023681D43256002E02368AB43236070
:1007680070BDC04600540040005800409031000859
:1007780070B505000C000C4B984206D00B4B984204
:1007880003D00B490B4800F04DFF0B4B9C4203D99B
:100798000A49084800F046FF6B689B0A9B02A405BB
:1007A800A40D1C436C6070BD00540040005800400C
:1007B8001102000090310008FF030000120200003F
:1007C80070B504000D000E4B984206D00D4B9842B0
:1007D80003D00D490D4800F025FF012D03D90C4920
:1007E8000A4800F01FFF002D05D06368802292049C
:1007F8001343636003E06268064B1340636070BD97
:1008080000540040005800406D020000903100087C
:100818006E020000FFFFFFFD70B505000C00094BDC
:10082800984207D0084B984204D0A821890007486D
:1008380000F0F8FE6A68064B134024041C436C6001
:1008480070BDC04600540040005800409031000878
:10085800FFFF00FF70B504000D00114B984206D051
:10086800104B984203D01049104800F0DBFE002DD1
:1008780008D08023DB009D4204D0AF2189000B48BB
:1008880000F0D0FE002D04D16268094B134063606C
:1008980004E063688022D2001343636070BDC046E1
:1008A8000054004000580040BB020000903100088E
:1008B800FFFBFFFF70B504000D000E4B984206D0F9
:1008C8000D4B984203D00D490D4800F0ABFE012DA9
:1008D80003D90C490A4800F0A5FE002D05D063682D
:1008E800802292011343636003E06268064B134061
:1008F800636070BD0054004000580040D5020000FD
:1009080090310008D6020000FFDFFFFF70B5040039
:100918000D00064B984206D0054B984203D0054976
:10092800054800F07FFEA56270BDC0460054004037
:1009380000580040DF0400009031000810B50400A2
:10094800064B984206D0064B984203D00549064804
:1009580000F068FE606AC0B210BDC0460054004096
:1009680000580040ED0400009031000870B5050003
:100978000C00204B984206D01F4B984203D01F49C9
:100988001F4800F04FFE631E012B2BD9042C29D0E1
:10099800082C27D0102C25D0202C23D0402C21D057
:1009A800802C1FD080235B009C421BD00133FF3377
:1009B8009C4217D08023DB009C4213D080231B016C
:1009C8009C420FD080235B019C420BD080239B016B
:1009D8009C4207D080231B029C4203D00949084847
:1009E80000F020FEAB69234201D0012000E0002086
:1009F80070BDC046005400400058004093050000F8
:100A0800903100089405000070B505000C00284BD3
:100A1800984206D0274B984203D02749274800F030
:100A280001FE022C27D0042C25D0082C23D0102C12
:100A380021D0202C1FD0402C1DD0802C1BD08023EF
:100A48005B009C4217D00133FF339C4213D08023B4
:100A5800DB009C420FD080231B019C420BD08023DB
:100A68005B019C4207D080239B019C4203D0144920
:100A7800124800F0D7FDFC239B011C4203D02B68D1
:100A88008022134008E0C023234203D02B68402271
:100A9800134001E02B682340AA69224203D0002BAF
:100AA80003D1002002E0002000E0012070BDC04614
:100AB8000054004000580040DE0500009031000856
:100AC800DF050000F8B50400734B5B680C22134087
:100AD800042B0CD002D8002B05D029E0082B0AD013
:100AE8000C2B21D024E06D4B0360002023E06C4BDD
:100AF800036000201FE0684B58685A68C0235B02F7
:100B0800800C0F252840851C1A4202D1654868438D
:100B180008E0614BDB6A0F2119400131604801F0A0
:100B2800B1FC6843206006E05D4B0360002002E0F2
:100B38005A4B2360002058494B681B090F22134069
:100B4800594DEB5CDBB226683200DA401300626074
:100B58004A68120A07273A40AA5CD2B2D340A36077
:100B68000A6BD20502D4514AE26008E04A4A526848
:100B7800520402D45A08E26001E09A08E260464A48
:100B8800126B520602D44A4A226102E08022120203
:100B98002261414A126BD20602D4404A626100E0E7
:100BA80066613D4A126B920701D1A36119E03A4A86
:100BB800126B03210A40012A01D1A66111E0364ACD
:100BC800126B03210A40022A03D180221202A26179
:100BD80007E0314A126B03210A40032A01D12F4A48
:100BE800A2612D4A116BC0229202114201D1E36128
:100BF80020E0294A116BC02292020A408021490252
:100C08008A4201D1E66115E0234A116BC0229202A3
:100C18000A40802189028A4203D180221202E261BD
:100C280008E01D4A126BC02189020A408A4201D19C
:100C38001A4AE261184A116BC0221203114201D10B
:100C4800236220E0144B1A6BC0231B03134080223D
:100C5800D202934201D1266215E00F4B1A6BC023D2
:100C68001B03134080221203934203D180231B02EB
:100C7800236208E0084B1B6BC02212031340934207
:100C880001D1064B2362044B1B6B1B0602D4044B99
:100C9800636200E06062F8BD0010024000127A0052
:100CA800006CDC0200093D0004000020809FD50094
:100CB8001280000070B504000D000D4B184201D1E0
:100CC800002803D10B490C4800F0ACFC012D03D9D6
:100CD8000A49094800F0A6FC002D04D0084A5369C7
:100CE8001C43546103E0064A5369A343536170BD32
:100CF800A8FF81FE56050000C03100085705000016
:100D08000010024070B504000D000D4B184201D1CF
:100D1800002803D10B490C4800F084FC012D03D9AD
:100D28000A49094800F07EFC002D04D0084A93695E
:100D38001C43946103E0064A9369A343936170BD21
:100D48001EA5B8FF7D050000C03100087E05000023
:100D58000010024070B504000D000D4B184201D17F
:100D6800002803D10B490C4800F05CFC012D03D985
:100D78000A49094800F056FC002D04D0084AD369F6
:100D88001C43D46103E0064AD369A343D36170BD11
:100D9800CCB68185AB050000C0310008AC05000069
:100DA8000010024070B504000D000D4B184201D12F
:100DB800002803D10B490C4800F034FC012D03D95D
:100DC8000A49094800F02EFC002D04D0084A936A0D
:100DD8001C43946203E0064A936AA343936270BD7E
:100DE800A8FF81FECA050000C0310008CB0500003D
:100DF8000010024070B504000D000D4B184201D1DF
:100E0800002803D10B490C4800F00CFC012D03D934
:100E18000A49094800F006FC002D04D0084AD368A6
:100E28001C43D46003E0064AD368A343D36070BD73
:100E38001EA5B8FFEE050000C0310008EF05000050
:100E48000010024070B504000D000D4B184201D18E
:100E5800002803D10B490C4800F0E4FB012D03D90D
:100E68000A49094800F0DEFB002D04D0084A13693E
:100E78001C43146103E0064A1369A343136170BD60
:100E8800CCB6818519060000C03100081A0600009A
:100E98000010024070B505000C00052803D9FC219C
:100EA8000C4800F0BFFB0F2C03D9FD21094800F0C6
:100EB800B9FB032323409B000F269E40A108064A46
:100EC800023189008858B043885088589D400543AE
:100ED8008D5070BDF03100080000014070B504006D
:100EE8000D00374B98421DD08023DB05984219D05E
:100EF800344B984216D0344B984213D0334B984217
:100F080010D0334B98420DD0324B98420AD0324B16
:100F1800984207D0314B984204D086214900304886
:100F280000F080FB6B88002B0CD0102B0AD0202BF4
:100F380008D0402B06D0602B04D00E21FF31284862
:100F480000F070FB2B89002B0CD0802252009342BA
:100F580008D00132FF32934204D08721490020484B
:100F680000F060FB23889BB2154A944206D0802289
:100F7800D205944202D0134A944203D1702293437B
:100F88006A881343104A944204D0164A13402A89A7
:100F980013439BB223806B68E3622B882385084B3D
:100FA8009C4208D00B4B9C4205D00B4B9C4202D074
:100FB8000A4B9C4201D1AB7A23860123A38270BDE0
:100FC800002C0140000400400010004000140040C4
:100FD800002000400040014000440140004801401A
:100FE80024320008FFFCFFFF70B504000D001A4B07
:100FF80098421DD08023DB05984219D0174B9842A0
:1010080016D0174B984213D0164B984210D0164B57
:1010180098420DD0154B98420AD0154B984207D0EC
:10102800144B984204D097218900134800F0FAFA2B
:10103800012D03D91149104800F0F4FA002D05D00C
:101048002288012313439BB2238003E023880122D3
:101058009343238070BDC046002C0140000400402B
:1010680000100040001400400020004000400140F3
:101078000044014000480140243200085D0200009D
:1010880070B504000D0016001C4B98421CD080233C
:10109800DB05984218D01A4B984215D0194B984244
:1010A80012D0194B98420FD0184B98420CD0184BBD
:1010B800984209D0174B984206D0174B984203D054
:1010C8001649174800F0AEFAFF232A009A4301D1C7
:1010D800002D03D11349124800F0A4FA012E03D9B8
:1010E80011490F4800F09EFA002E03D0A3891D4332
:1010F800A58102E0A389AB43A38170BD002C014008
:10110800000400400010004000140040002000408F
:101118000040014000440140004801403A090000F5
:10112800243200083B0900003C09000070B50500A6
:101138000C00174B98421CD08023DB05984218D02E
:10114800144B984215D0144B984212D0134B984226
:101158000FD0134B98420CD0124B984209D0124B27
:10116800984206D0114B984203D01149114800F01B
:1011780059FAFF2322009A4301D1002C03D10E49CA
:101188000C4800F04FFAE443A4B22C8270BDC0466C
:10119800002C0140000400400010004000140040F2
:1011A8000020004000400140004401400048014048
:1011B8000E0A0000243200080F0A0000F0B58DB0B6
:1011C80004000D00654B984218D0654B984215D025
:1011D800644B984212D0644B98420FD0634B9842AC
:1011E8000CD0634B984209D0624B984206D0624BB0
:1011F800984203D0F221614800F014FA2B68013BB1
:101208005F4A934203D9F3215C4800F00BFA6B68FC
:10121800002B0AD080225201934206D0594A9342A9
:1012280003D0F421554800F0FDF9AB68002B0BD032
:1012380080229201934207D0C0229201934203D0A8
:10124800F5214E4800F0EEF9EB68002B0BD0802218
:10125800D200934207D0C022D200934203D0F62195
:10126800464800F0DFF92B690C221900914301D19F
:10127800002B03D1F721414800F0D4F96B69002B0A
:101288000FD08022520093420BD00132FF3293429A
:1012980007D00132FF32934203D0F821374800F0DB
:1012A800C1F923680122934323606268364B1340D7
:1012B800AA68134363602168344B19406B68EA6875
:1012C80013432A691A430B0013432360A268304B67
:1012D80013406A691343A36002A8FFF7F3FB1F4B8F
:1012E8009C4201D1089E0AE01D4B9C4201D1099EF7
:1012F80005E01C4B9C4201D10A9E00E0049E236835
:101308001B040CD576002B6801931900300001F0FE
:10131800B9F807000199300001F03AF90AE02B68A2
:1013280001931900300001F0ADF807000199300071
:1013380001F02EF92B685B08994200D30137236826
:101348001B0406D57B0807221A40124B3B401A4360
:101358001700BBB2A3810DB0F0BDC04600380140F4
:101368000044004000480040004C0040005000404D
:101378000014014000180140001C014054320008CC
:101388007F8D5B0000100010FFCFFFFFF3E9FFFF28
:10139800FFFCFFFFF0FF000070B504000D00184BC4
:1013A800984219D0174B984216D0174B984213D031
:1013B800164B984210D0164B98420DD0154B9842B8
:1013C8000AD0154B984207D0144B984204D0D62126
:1013D8004900134800F026F9012D04D9AE21FF3148
:1013E8000F4800F01FF9002D04D022680123134391
:1013F800236003E0236801229343236070BDC04645
:10140800003801400044004000480040004C0040C3
:10141800005000400014014000180140001C014029
:101428005432000870B505000C00134B984218D0D0
:10143800124B984215D0124B984212D0114B984239
:101448000FD0114B98420CD0104B984209D0104B3A
:10145800984206D00F4B984203D00F490F4800F02E
:10146800E1F80F4B9C4203D90E490C4800F0DAF81A
:10147800E405E40D2C8570BD0038014000440040AF
:1014880000480040004C004000500040001401405B
:1014980000180140001C0140B60300005432000847
:1014A800FF010000B703000070B504000D00374BC2
:1014B800984218D0364B984215D0364B984212D0E5
:1014C800354B98420FD0354B98420CD0344B98424C
:1014D80009D0344B984206D0334B984203D0334955
:1014E800334800F09FF8012D49D0802D47D0402D7A
:1014F80045D0202D43D0102D41D080235B009D4244
:101508003DD00133FF339D4239D0082D37D0042D0B
:1015180035D0022D33D08023DB009D422FD080238D
:101528001B019D422BD080235B019D4227D0802345
:10153800DB019D4223D080231B029D421FD08023C4
:101548005B029D421BD080239B029D4217D08023C3
:10155800DB029D4213D080231B039D420FD08023C2
:101568005B039D420BD080239B039D4207D08023C1
:10157800DB039D4203D00F490D4800F053F8E3699F
:101588002B4201D0012000E0002070BD003801404E
:101598000044004000480040004C0040005000401B
:1015A8000014014000180140001C0140C20700005F
:1015B80054320008C3070000FEE7C04610B50348D0
:1015C80000F050F80120FFF7F7FFC0468832000806
:1015D80010B503000C4A1268002A02D10B490A4AC6
:1015E8001160094A1068033303229343C318084A59
:1015F800934206D901F044F90C23036001204042CC
:1016080001E0014A136010BDA00000209C010020E9
:10161800001C002001230360014B0B607047C0468B
:101628001400002010B50A000100024800F004F878
:10163800FFF7C4FFDC3200080FB400B583B004AB79
:1016480004CB01938021064801F052F9002803DDFC
:101658000100034800F04AF803B008BC04B018477A
:10166800A800002010B5040001F010F901002000C6
:1016780000F03CF80121024800F038F810BDC046DF
:1016880040330008F0B54F464646C0B487B0040062
:1016980001914356002B1FD10426301C211CABBEE0
:1016A800041C1CE03E00102F00D91026002305E082
:1016B8000022A25602A9CA5401330134B342F7D317
:1016C80002AA914600224946CA540425281C4946C4
:1016D800ABBE8046BF1B00E0019F002FE2D10198FE
:1016E80007B00CBC90469946F0BDC04610B5FFF750
:1016F800C9FF10BD10B500F0A1F810BD10B500F07D
:10170800CFF810BD70B504000D001548FFF794FF21
:1017180021681448FFF790FF61681348FFF78CFFB2
:10172800A1681248FFF788FFE1681148FFF784FFB6
:1017380021691048FFF780FF61690F48FFF77CFFB8
:10174800A1690E48FFF778FFE1690D48FFF774FFBC
:101758000C48FFF771FF29000B48FFF76DFF70BDBC
:101768003433000844330008543300086433000855
:10177800743300088433000894330008A433000845
:10178800B4330008C4330008CC33000882B0002307
:1017980001930093264A1368802149020B43136082
:1017A800234B1A6880239B0213400093019B01334B
:1017B8000193009B002B04D1019AA023DB019A42DC
:1017C800EED11B4B1B689B0302D50123009301E05C
:1017D80000230093009B012B28D11122154B1A607E
:1017E800134B5A685A605A685A605968124A0A4034
:1017F8005A605A68882149030A435A601A68802146
:1018080049040A431A600A4B1B689B01FBD5084B25
:101818005A6803218A435A60596802220A435A6067
:10182800034B5B680C221340082BF9D102B07047B8
:101838000010024000200240FF7FC0FF10B5124B8D
:101848001A6801210A431A605868104A02405A600F
:1018580018680F4A02401A6018680E4A02401A6057
:1018680058680D4A02405A60DA6A0F208243DA62E9
:10187800186B0A4A02401A635A6B8A435A63002259
:101888009A60FFF783FF10BD001002400CB8FFF804
:10189800FFFFF6FEFFFFFBFFFFFFC0FFACFEFFFFF1
:1018A80010B51F4B5B680C221340042B07D0082B84
:1018B80009D0002B23D11B4A1B4B1A6022E01B4A7C
:1018C800194B1A601EE0164B5C685A68C0235B020D
:1018D800A40C0F20044002341A4204D11448444393
:1018E800114B1C600EE00E4BDB6A0F2119400131D1
:1018F8000E4800F0C7FD44430B4B1C6002E0094A48
:10190800094B1A60064B5B681B090F221340094AF2
:10191800D35CDBB2044A1168D940116010BDC046DF
:101928000010024000127A002C000020006CDC023B
:1019380000093D001C00002070B58AB08026F6031F
:1019480001213000FFF7B6F908A9C0230893BE3B70
:101958000B7101334B71023B8B710024CC71184D14
:101968002800FEF7EFFC002206212800FEF7D6FD2E
:10197800002207212800FEF7D1FD01213000FFF7E2
:10198800E9F9104D00212800FEF798FE0E4B01934F
:1019980080235B0102930523039304940594069422
:1019A800079401A92800FEF703FE0122D62128008A
:1019B800FEF7ACFE01212800FEF780FE0AB070BDDC
:1019C800001400480058004047139000F0B585B057
:1019D800012180208002FFF76DF901218020C002DB
:1019E800FFF768F902A9FF23029301270F71032665
:1019F8004E7100248C71CC710D4D2800FEF7A2FCAD
:101A080008212800FEF75AFD10212800FEF756FD90
:101A180080235B0000936B461F715E719C71DC71C3
:101A280069469020C005FEF78DFC05B0F0BDC046A4
:101A38000004004870B588B0060001218020C0016C
:101A4800FFF760F906A9C023DB00069302230B7198
:101A580001334B7100248C71CC719025ED05280061
:101A6800FEF770FC012209212800FEF757FD01222C
:101A78000A212800FEF752FDFFF712FFE1235B025F
:101A880000930196029403940C2304930594074C45
:101A980069462000FFF792FBA223FF33A3810121AF
:101AA8002000FFF779FC08B070BDC046003801403F
:101AB80010B584B00400012180200001FFF722F94D
:101AC80001A90D4B0B8000234B804C600B818B725E
:101AD8000A4C2000FFF702FA012201212000FFF73B
:101AE800CFFA01212000FFF77FFA80229201044BF0
:101AF8001A6004B010BDC0467FBBFFFF002C014038
:101B080000E100E000B583B001210120FFF7FAF8F9
:101B180000210020FFF7BEF904210020FFF7BAF9E1
:101B280002210020FFF7B6F91523009300236A4627
:101B3800137108335371073B93716846FEF788FBAE
:101B480003B000BDF8B54F464646C0B4234C8021CB
:101B580089002000FEF758FF85B280214900200047
:101B6800FEF752FF86B210212000FEF74DFF87B224
:101B780004212000FEF748FF83B298460221200086
:101B8800FEF742FF83B2994640212000FEF73CFF52
:101B980080B2012D11D0012E12D0012F13D043464F
:101BA800012B03D1012810D1433013E04B46012B00
:101BB8000DD101280DD141300CE08020800009E0D2
:101BC8008020400006E0102004E0042002E04020CD
:101BD80000E002200CBC90469946F8BD0058004031
:101BE80070B504000E00150000220B4B1A7000217E
:101BF800FEF730FEB1B22000FEF7BAFDE9B22000D0
:101C0800FEF70AFE00212000FEF7DAFD0121200080
:101C1800FEF750FE70BDC0463000002070B50400CD
:101C28000E0015008021C900FEF714FEB1B2200095
:101C3800FEF79EFDE9B22000FEF7EEFD012120002F
:101C4800FEF7BEFD01212000FEF734FE70BDC04640
:101C5800F0B5474680B482B004000D0001921F0021
:101C6800089E802109022000FEF780FE0128F8D096
:101C780000212000FEF7EEFDA9B22000FEF778FD56
:101C8800F9B22000FEF7C8FD01212000FEF798FDFB
:101C980001212000FEF70EFE10212000FEF766FE4F
:101CA80010280BD001212000FEF760FE012803D187
:101CB80001992000FEF72AFE022518E0FF220F4BAB
:101CC8009A82F9E702212000FEF750FE0028F9D099
:101CD80010212000FEF74AFE002806D1731C984602
:101CE80031782000FEF712FE46460135EDB2ABB260
:101CF8009F42E7D202B004BC9046F0BD0004004801
:101D0800F0B589B007AE012333706A461376002216
:101D180069460A7504AD0B322A7003AF35323A7042
:101D280002AC2370009501332B32D0211848FFF7FD
:101D38008FFF009702236B22D0211548FFF788FFF9
:101D4800009502236B22D0211148FFF781FF0096EE
:101D580002231A22D0210E48FFF77AFF06AB009320
:101D680002231922D0210A48FFF772FF05AB00931E
:101D780002231B22D0210648FFF76AFF00940223A2
:101D88003822D0210248FFF763FF09B0F0BDC046F2
:101D980000580040F8B5164B1C68164D2C605F685B
:101DA8006F609E68AE6000191860CF195F60961961
:101DB8009E60114B1C88FA239B009C4213D119008A
:101DC80000F0EAFB0D4D2880FA218900380000F068
:101DD800E3FB6880FA218900300000F0DDFBA88071
:101DE8000122074B1A70631C034A1380F8BDC046D2
:101DF800540100204801002040010020300100204B
:101E080060010020F0B55F4656464D464446F0B4A2
:101E180085B0814B1B78012B00D0F6E07F4C6068C1
:101E280000F0A6FC06B2A06800F0A2FC05B2E068CB
:101E380000F09EFC04B27A4B1F68F3B29B46361240
:101E4800F6B2EBB29A462D12EDB2E3B299462412DD
:101E5800E4B2FBB20193390ACBB20293390CCBB28C
:101E680098463F0E492E00D101365B46492B01D1D9
:101E780001339B46492D00D101355346492B01D1E9
:101E880001339A46492C00D101344B46492B01D1E4
:101E980001339946019B492B01D101330193029BE0
:101EA800492B01D1013302934346492B01D1013318
:101EB8009846492F00D101375A4B1B78042B23D160
:101EC80049215948FFF7AEFA80215748FFF7ECFA45
:101ED8000028F9D0002414E0092C06D140215248EA
:101EE800FFF7E2FA0028F9D005E080214E48FFF715
:101EF800DBFA0028F9D000214B48FFF793FA0134A8
:101F0800E4B2092CE8D97BE049214748FFF78AFA6F
:101F180080214548FFF7C8FA0028F9D0B1B24248F5
:101F2800FFF780FA80214048FFF7BEFA0028F9D071
:101F38005B466A46D381D1893B48FFF773FA802113
:101F48003948FFF7B1FA0028F9D0A9B23648FFF7A7
:101F580069FA80213448FFF7A7FA0028F9D05346D8
:101F68006A46D381D1893048FFF75CFA80212E4830
:101F7800FFF79AFA0028F9D0A1B22B48FFF752FAD6
:101F880080212948FFF790FA0028F9D04B466A4685
:101F9800D381D1892448FFF745FA80212248FFF7E9
:101FA80083FA0028F9D0B9B21F48FFF73BFA80211D
:101FB8001D48FFF779FA0028F9D043466A46D381CD
:101FC800D1891948FFF72EFA80211748FFF76CFAD4
:101FD8000028F9D06B4619891348FFF723FA8021A6
:101FE8001148FFF761FA0028F9D06B4699880E4826
:101FF800FFF718FA40210C48FFF756FA0028F9D0E5
:1020080000230A4A13700A4A137005B03CBC904674
:102018009946A246AB46F0BD600100208801002029
:102028006C0100202C0100200038014061010020D3
:102038002D01002010B5FFF7C9FCFFF77DFC8020BB
:102048004001FFF7F7FCFFF75BFE3220FFF730FD9A
:102058000E4B1B78002BFBD0002301E0C046013358
:102068000B4A9342FAD940210A48FEF7F7F9FFF7DD
:1020780049FD094B40221A6040321A60074B1B7811
:10208800012BFBD1FFF7BEFEF8E7C0466701002031
:102098007F8D5B000004004800E100E02D01002076
:1020A80010B501210B48FFF741F80B4B1B78002BAB
:1020B8000ED10124094B1C70802189018023084A14
:1020C800D150002180200001FEF794FE024B1C70C5
:1020D80010BDC046002C01402C01002067010020E3
:1020E80000E100E010B50120FEF718F90C4A13686A
:1020F8000133136080230B4AD3500B4B1B78012B01
:1021080004D1FFF719FC0022074B1A7080225204F1
:10211800044B1A600122D0210448FFF761FD10BD6D
:102128006C01002000E100E07B0100200058004025
:1021380070B5FFF707FD442808D0042806D04228C8
:1021480004D0022802D0402800D03EE1AC4B1A78D7
:10215800062A00D952E19300AA4AD3589F46042878
:102168000FD0402807D0022800D047E13A21A648DE
:10217800FEF7CCFB42E10122D021A348FFF74EFD38
:102188003CE1A148FEF7DAFBA04B1870C30700D466
:1021980034E101229A4B1A70D0219B48FFF720FDA9
:1021A8002CE104280FD0402807D0022800D025E1D0
:1021B80043219548FEF7AAFB20E10122D02192484D
:1021C800FFF72CFD1AE1924B1D788F4C2000FEF78B
:1021D800B5FB904B58550222894B1A70013AD02111
:1021E8002000FFF7FDFC09E104280FD0402807D0A4
:1021F800022800D002E144218348FEF787FBFDE076
:102208000122D0218048FFF709FDF7E0804B1D78B7
:102218007D4C2000FEF792FB7F4B58550322784BEC
:102228001A70023AD0212000FFF7DAFCE6E0042811
:102238000FD0402807D0022800D0DFE0452172489F
:10224800FEF764FBDAE00122D0216F48FFF7E6FCD5
:10225800D4E06F4B1D786C4C2000FEF76FFB6F4B82
:1022680058550422664B1A70033AD0212000FFF714
:10227800B7FCC3E004280FD0402807D0022800D0BC
:10228800BCE046216048FEF741FBB7E00122D021BF
:102298005D48FFF7C3FCB1E05D4B1D785A4C200048
:1022A800FEF74CFB5E4B58550522554B1A70043A05
:1022B800D0212000FFF794FCA0E004280FD040288C
:1022C80007D0022800D099E047214F48FEF71EFBAF
:1022D80094E00122D0214C48FFF7A0FC8EE04C4B43
:1022E8001D78494C2000FEF729FB4E4B5855062215
:1022F800434B1A70053AD0212000FFF771FC7DE0AE
:1023080004280ED0402806D0022877D148213E481C
:10231800FEF7FCFA72E00122D0213B48FFF77EFC71
:102328006CE03B4B1C783848FEF708FB3E4A1055DA
:10233800384B1878384B1B780002C01886B230B278
:102348003A4B1880354B1D78354B1B782D02ED180C
:10235800ACB221B2364B1980324B1B7812781B0273
:102368009B189BB21AB2334D2A80334D2D78002D1D
:1023780002D1FFF70FFD1EE0304A0021505E301AEF
:1023880000B22A4908800221555E651B2DB22849F2
:102398000D800424145F1B1B1CB2264B1C80284E86
:1023A80000F008FA7060280000F004FAB06020001D
:1023B80000F000FAF0600122224B1A700022104B44
:1023C8001A708032204B1A6018E08024E403002140
:1023D8002000FEF7E7FC00212000FEF733FD002176
:1023E8000948FEF76BF9802149048023164AD15029
:1023F8000022034B1A700132144B1A7070BDC0468C
:1024080072010020F4330008005800406A010020DF
:102418002B0100207801002028010020380100202D
:10242800440100203C0100206401002068010020D4
:10243800700100207401002060010020300100209C
:10244800880100202D01002000E100E07B01002030
:1024580010B50420FDF762FF20218023024AD150E5
:102468000022024B1A7010BD00E100E0600100205C
:1024780010B51020FDF752FF2022014B1A6010BD45
:1024880000E100E0002243088B4274D303098B4229
:102498005FD3030A8B4244D3030B8B4228D3030C2C
:1024A8008B420DD3FF22090212BA030C8B4202D3CE
:1024B8001212090265D0030B8B4219D300E0090AF6
:1024C800C30B8B4201D3CB03C01A5241830B8B42FF
:1024D80001D38B03C01A5241430B8B4201D34B03E8
:1024E800C01A5241030B8B4201D30B03C01A52414D
:1024F800C30A8B4201D3CB02C01A5241830A8B42D2
:1025080001D38B02C01A5241430A8B4201D34B02BA
:10251800C01A5241030A8B4201D30B02C01A52411E
:10252800CDD2C3098B4201D3CB01C01A52418309D2
:102538008B4201D38B01C01A524143098B4201D30C
:102548004B01C01A524103098B4201D30B01C01A37
:102558005241C3088B4201D3CB00C01A52418308B1
:102568008B4201D38B00C01A524143088B4201D3DE
:102578004B00C01A5241411A00D20146524110463E
:102588007047FFE701B5002000F0F0F802BDC04633
:102598000029F7D076E7704703460B437FD4002223
:1025A80043088B4274D303098B425FD3030A8B42DF
:1025B80044D3030B8B4228D3030C8B420DD3FF2249
:1025C800090212BA030C8B4202D31212090265D017
:1025D800030B8B4219D300E0090AC30B8B4201D3CA
:1025E800CB03C01A5241830B8B4201D38B03C01A11
:1025F8005241430B8B4201D34B03C01A5241030B88
:102608008B4201D30B03C01A5241C30A8B4201D338
:10261800CB02C01A5241830A8B4201D38B02C01AE3
:102628005241430A8B4201D34B02C01A5241030A5A
:102638008B4201D30B02C01A5241CDD2C3098B423F
:1026480001D3CB01C01A524183098B4201D38B01BC
:10265800C01A524143098B4201D34B01C01A52415F
:1026680003098B4201D30B01C01A5241C3088B42A4
:1026780001D3CB00C01A524183088B4201D38B008F
:10268800C01A524143088B4201D34B00C01A524131
:10269800411A00D201465241104670475DE0CA0F08
:1026A80000D04942031000D34042534000229C46C8
:1026B80003098B422DD3030A8B4212D3FC228901D2
:1026C80012BA030A8B420CD3890192118B4208D3A8
:1026D800890192118B4204D389013AD0921100E00A
:1026E8008909C3098B4201D3CB01C01A524183091E
:1026F8008B4201D38B01C01A524143098B4201D34B
:102708004B01C01A524103098B4201D30B01C01A75
:102718005241C3088B4201D3CB00C01A52418308EF
:102728008B4201D38B00C01A5241D9D243088B4245
:1027380001D34B00C01A5241411A00D201466346E8
:1027480052415B10104601D34042002B00D549424C
:10275800704763465B1000D3404201B5002000F08B
:1027680005F802BD0029F8D016E770477047C04643
:102778004302590A4300C20F1B0E00207E2B0EDDB8
:102788009D2B0DDC802000040143952B0BDC96204B
:10279800C31AD9400B005842002A00D118007047CC
:1027A800034BD018FBE7963B99400B00F3E7C04674
:1027B800FFFFFF7F70B5002830D0C317C5185D40F4
:1027C800C40F280000F03EF89E231B1A962B0DDC40
:1027D8009622D21A95406A02520AD8B25202C0050D
:1027E800520AE40702432243100070BD992B19DCFA
:1027F8009922D21A9540124A2A40690704D00F211B
:102808000D40042D00D00432510103D50C4B1A4061
:102818009F231B1A9201520AD8B2DFE70024002036
:102828000022DBE705222E00121AB921D6402A0021
:10283800C91A8A40551EAA4135001543DBE7C04630
:10284800FFFFFFFB1C2101231B04984201D3000C4E
:1028580010391B0A984201D3000A08391B0998420B
:1028680001D30009043902A2105C40187047C04621
:102878000403020201010101000000000000000041
:10288800014B18687047C046940000200023C25CC2
:102898000133002AFBD1581E704730B514009BB095
:1028A80005001A00002C04DA8B2303600120404243
:1028B8001CE0822368469B008381002300910491D9
:1028C8009C4200D0631E02930593012369465B4234
:1028D800CB8128001E9B00F079F8431C01DA8B237A
:1028E8002B60002C02D00023009A13701BB030BD5F
:1028F80007B5009313000A00010002480068FFF7BB
:10290800CCFF0EBD94000020F0B58E6885B007009E
:102918000C00039201939E4243D890238A89DB00DE
:102928001A423ED003250969236801985B1A02936D
:1029380063695D43EB0F5D19029B6D1001331B1832
:10294800AB4200D91D00530510D52900380000F00E
:1029580041FB061E14D0029A216900F0D0FAA28920
:10296800194B134080221343A38112E02A00380038
:1029780000F090FB061E0CD12169380000F0DEFA49
:102988000C23402201203B60A38940421343A381CA
:1029980017E0029B2661F61826606561019EED1A14
:1029A800A560019BB34200D21E0032000399206843
:1029B80000F0AEFA0020A3689B1BA36023689E1951
:1029C800266005B0F0BDC0467FFBFFFFF0B59FB0A5
:1029D800029005938B890F0016001B0610D50B6912
:1029E800002B0DD1402100F0F5FA3860386100283D
:1029F80004D10C23029A01381360D8E040237B618C
:102A0800002306AD6B6120336B761033AB76340050
:102A18002378002B03D1A31B049312D003E0252BAA
:102A2800F9D00134F4E7A31B320039000298FFF70C
:102A38006BFF431C00D1B4E06A69049B944663446D
:102A48006B612378002B00D1ABE0012200235242B6
:102A58006A6002A95432521801342B60EB60AB60F3
:102A68001370AB65534E21780522300000F03CFA14
:102A7800002807D00123801B83402A6801341343B0
:102A88002B60EFE72B68DA0604D55322202102A831
:102A9800121811701A0704D553222B2102A81218F4
:102AA800117022782A2A03D0099B00200A210EE0FF
:102AB800059A111D12680591002A01DB099204E0AC
:102AC8005242EA60022213432B6001340BE0227861
:102AD800303A092A04D84B4301349B180120F6E701
:102AE800002800D0099323782E2B1ED163782A2B37
:102AF8000AD1059B02341A1D1B680592002B01DAC6
:102B080001235B42079310E000230A201A000134D6
:102B18006B6021783039092904D8424301345218AE
:102B28000123F6E7002B00D00792234E21780322D9
:102B3800300000F0D9F9002806D04023801B8340DC
:102B48002A68013413432B60217806221B48661C2F
:102B5800297600F0C9F9002812D0194B002B06D1AC
:102B68000722059B073393430833059314E005AB0D
:102B780000933A00134B2900029800E000BF07E0D9
:102B880005AB00933A000F4B2900029800F08AF831
:102B98000390039B013304D06B69039A9B186B6104
:102BA80035E7BB890B985B0601D5012040421FB071
:102BB800F0BDC04610340008163400081A34000866
:102BC8000000000011290008F7B5170001938A6872
:102BD8000B6900900C00934200DA130022003B605E
:102BE80043321278002A01D001333B6023689B06E8
:102BF80002D53B6802333B60062523681D401ED082
:102C0800230043331B785A1E9341226892061CD531
:102C18003020E1184331087021005A1C45310978E9
:102C2800A2184332023311700FE022000123193237
:102C380001990098089EB047431C0ED00135E368FF
:102C48003A689B1A9D42F0DBDAE722000199433289
:102C58000098089DA847431C02D10120404220E06B
:102C680006232068E1683A6803400025042B03D155
:102C78008D1AEB43DB171D40A3682269934201DDDF
:102C88009B1AED180027BD420AD0220001231A32F0
:102C980001990098089EB047431CDED00137F2E73F
:102CA8000020FEBDF0B58BB006920A0043320793B0
:102CB800059004920A7E0C00109B6E2A00D1ABE0AE
:102CC80011D8632A22D009D8002A00D1B5E0582AA1
:102CD80000D0C5E045310A70814A4FE0642A1DD012
:102CE800692A1BD0BCE0732A00D1AAE009D86F2A50
:102CF80029D0702A00D0B3E0202209680A43226054
:102D080037E0752A1FD0782A33D0A9E00E001A6858
:102D18004236111D196013683370A4E021681A68DF
:102D2800080606D4490604D5111D19600023D55E8E
:102D380002E0111D19601568002D3BDA2D23049A55
:102D48006D42137036E021681A68080606D44906F1
:102D580004D51568111D1960ADB202E0111D196086
:102D680015685F4B227E039308276F2A1DD00A2718
:102D78001BE022007821453211705A4A19680392E3
:102D8800081D226818600D68100602D4500600D588
:102D9800ADB2D30702D520231A4322601027002D95
:102DA80003D1202322689A43226023000022433360
:102DB8001A7002E00A274A4B03936368A360002B4A
:102DC80009DB0422216891432160002D05D1049E6E
:102DD800002B11D07BE0002D79D0049E280039000B
:102DE800FFF7D6FB039B013E5B5C2800337039007C
:102DF800FFF748FB051EF1D1082F09D12368DB072F
:102E080006D563682269934202DC3023013E3370A1
:102E1800049B9B1B23612BE009681A68080607D4EA
:102E2800490605D5111D19601368A28A1A8004E0A5
:102E3800111D1960136862691A600023049E2361DA
:102E480016E01A68111D19601668002162683000C2
:102E580000F04AF8002801D0801B6060636803E036
:102E6800260042363270012323610023049A13702E
:102E7800079B09AA00932100069B0598FFF7A4FE6B
:102E8800431C02D10120404227E023693200069901
:102E98000598079DA847431CF4D0236800259B0785
:102EA8000FD4099BE068984217DA180015E0220051
:102EB8000123193206990598079EB047431CE1D0B3
:102EC8000135E368099A9B1A9D42F0DBE9E7260081
:102ED800039B42361B7833708EE70BB0F0BDC046BB
:102EE8002134000832340008C9B28218904204D054
:102EF80003788B4202D00130F8E7002070470023A6
:102F080010B59A4203D0CC5CC4540133F9E710BD24
:102F180010B5884202D98B18984201D3002305E0E6
:102F28009B1A013A08D3995C8154FAE7934203D07B
:102F3800CC5CC4540133F9E710BD000070B505003E
:102F4800002944D00C1F2368002B00DAE41828005D
:102F580000F0D8F81E4A13681100002B02D16360F4
:102F6800146031E0A3420DD92268A018834203D12E
:102F780018685B688218226063600C6024E0A242D3
:102F880003D813005A68002AF9D11E689819A0427C
:102F98000BD12168711858181960824214D1106831
:102FA8005268411819605A600EE0A04202D90C23F9
:102FB8002B6009E021686018824203D110685268CA
:102FC8004118216062605C60280000F09CF870BDC8
:102FD80080010020032370B5CD1C9D4308350600F1
:102FE8000C2D01D20C2501E0002D01DBA94202D9EC
:102FF8000C23336048E0300000F084F8234B1C6851
:103008001A002100002913D00B685B1B0DD40B2B71
:1030180002D90B60CC181EE08C4202D163681360A1
:103028001AE04B6863600C0016E00C004968E9E799
:10303800174C2368002B03D1300000F051F82060B2
:103048002900300000F04CF8431C18D00323C41C9E
:103058009C43A0420DD12560300000F054F82000B8
:1030680007220B30231D9043C31A0ED05A42E25058
:103078000BE0211A300000F033F8431CEBD10C238D
:103088003000336000F03FF8002070BD8001002060
:103098007C010020F8B506000C001500002904D1B9
:1030A8001100FFF797FF040018E0002A03D1FFF78B
:1030B80045FF2C0012E000F027F885420ED92900C0
:1030C8003000FFF787FF071E07D021002A00FFF70F
:1030D80016FF21003000FFF731FF3C002000F8BD4B
:1030E800002370B5064C050008002360FEF770FA4F
:1030F800431C03D12368002B00D02B6070BDC04651
:1031080084010020704770470B1F1A68101F002A9F
:1031180004DA891804390B68D0180438704700009D
:103128002E2E2F73797374656D2F7372632F7374DA
:103138006D333266302D7374647065726970682FF0
:1031480073746D3332663078785F657874692E638E
:10315800000000002E2E2F73797374656D2F737223
:10316800632F73746D333266302D737464706572B7
:103178006970682F73746D3332663078785F677062
:10318800696F2E63000000002E2E2F73797374650B
:103198006D2F7372632F73746D333266302D7374B1
:1031A800647065726970682F73746D333266307835
:1031B800785F6932632E63002E2E2F7379737465DE
:1031C8006D2F7372632F73746D333266302D737481
:1031D800647065726970682F73746D333266307805
:1031E800785F7263632E63002E2E2F737973746574
:1031F8006D2F7372632F73746D333266302D737451
:10320800647065726970682F73746D3332663078D4
:10321800785F7379736366672E6300002E2E2F73B1
:10322800797374656D2F7372632F73746D3332669F
:10323800302D7374647065726970682F73746D33A0
:1032480032663078785F74696D2E63002E2E2F7386
:10325800797374656D2F7372632F73746D3332666F
:10326800302D7374647065726970682F73746D3370
:1032780032663078785F75736172742E630000006F
:1032880061626F727428292C2065786974696E6789
:103298002E2E2E002C2066756E6374696F6E3A2090
:1032A80000000000617373657274696F6E202225D7
:1032B8007322206661696C65643A2066696C6520D2
:1032C800222573222C206C696E65202564257325C0
:1032D800730A00006173736572745F706172616D67
:1032E8002829206661696C65643A2066696C6520E6
:1032F800222573222C206C696E652025640A000043
:103308006D61696E28617267633D25642C20617266
:1033180067763D5B000000002C2000002225732208
:10332800000000005D293B0A00000000537461633F
:103338006B206672616D653A0A00000020523020E9
:103348003D2020253038580A000000002052312046
:103358003D2020253038580A000000002052322035
:103368003D2020253038580A000000002052332024
:103378003D2020253038580A000000002052313204
:10338800203D20253038580A00000000204C5220EB
:103398003D2020253038580A0000000020504320E6
:1033A8003D2020253038580A000000002050535294
:1033B800203D20253038580A000000004D6973630D
:1033C8000A000000204C522F4558435F524554557F
:1033D800524E3D20253038580A0000005B48617283
:1033E800644661756C745D0A00000000662100087F
:1033F800AA210008F0210008362200087C220008D3
:10340800C222000808230008232D302B2000686CF6
:103418004C006566674546470030313233343536EF
:103428003738394142434445460030313233343528
:0B343800363738396162636465660056
:103444007856341200000000010203040102030450
:1034540006070809A4000020000000000000000086
:10346400000000000102030406070809006CDC02E6
:1034740001FFFFFF0000000000000000000000004A
:103484000000000000000000000000000000000038
:103494000000000000000000000000000000000028
:1034A4000000000000000000000000000000000018
:1034B4000000000000000000000000000000000008
:1034C40000000000000000000000000000000000F8
:0C34D40000000000340000203254769804
:04000005080000C52A
:00000001FF
